S0120000696E74657272757074302E73726563F5
S113000029C0000044C0000035C0000033C0000017
S113001031C000002FC000002DC000002BC0000024
S113002029C0000027C0000025C0000023C0000034
S113003021C000001FC000001DC000001BC0000044
S113004019C0000017C0000015C0000013C0000054
S113005011C0000011241FBECFE5D8E0DEBFCDBF24
S113006020E0A0E6B0E001C01D92A236B207E1F79D
S113007002D03BC0C5CF8FEF87BB85B7836085BFF8
S11300808BB780648BBF789485E088BBFECF1F92CA
S11300900F920FB60F9211242F938F939F938091F9
S11300A060009091610001969093610080936000DC
S11300B08091600090916100059779F48AE088BB93
S11300C02FEF84E39CE0215080409040E1F700C092
S11300D0000010926100109260009F918F912F9107
S11100E00F900FBE0F901F901895F894FFCF4D
S9030000FC
