S00D000050574D5F312E7372656393
S113000029C000002FC000002DC000002BC000003C
S113001029C0000027C0000025C0000023C0000044
S113002021C000001FC000001DC000001BC0000054
S113003019C0000017C0000015C0000013C0000064
S113004011C000000FC000000DC000000BC0000074
S113005009C0000011241FBECFE5D8E0DEBFCDBF2C
S113006002D013C0CDCF83B7886483BF83B78062C7
S113007083BF83B7856083BF8AE08CBF8FEF8ABB61
S111008085E08BBB80E090E00895F894FFCFFC
S9030000FC
